{
  "contractName": "Sikka",
  "abi": [
    {
      "inputs": [
        {
          "internalType": "uint256",
          "name": "",
          "type": "uint256"
        }
      ],
      "name": "groupOwners",
      "outputs": [
        {
          "internalType": "address",
          "name": "",
          "type": "address"
        }
      ],
      "stateMutability": "view",
      "type": "function"
    },
    {
      "inputs": [
        {
          "internalType": "address",
          "name": "",
          "type": "address"
        }
      ],
      "name": "groups",
      "outputs": [
        {
          "internalType": "string",
          "name": "name",
          "type": "string"
        },
        {
          "internalType": "uint256",
          "name": "expenseCount",
          "type": "uint256"
        }
      ],
      "stateMutability": "view",
      "type": "function"
    },
    {
      "inputs": [
        {
          "internalType": "string",
          "name": "_groupName",
          "type": "string"
        }
      ],
      "name": "createGroup",
      "outputs": [],
      "stateMutability": "nonpayable",
      "type": "function"
    },
    {
      "inputs": [
        {
          "internalType": "address",
          "name": "_groupOwner",
          "type": "address"
        },
        {
          "internalType": "string",
          "name": "_expenseDescription",
          "type": "string"
        },
        {
          "internalType": "uint256",
          "name": "_expenseAmount",
          "type": "uint256"
        },
        {
          "internalType": "address",
          "name": "_contributor",
          "type": "address"
        }
      ],
      "name": "addExpense",
      "outputs": [],
      "stateMutability": "nonpayable",
      "type": "function"
    },
    {
      "inputs": [
        {
          "internalType": "address",
          "name": "_groupOwner",
          "type": "address"
        },
        {
          "internalType": "address",
          "name": "_member",
          "type": "address"
        }
      ],
      "name": "addMembers",
      "outputs": [],
      "stateMutability": "nonpayable",
      "type": "function"
    },
    {
      "inputs": [
        {
          "internalType": "address",
          "name": "_groupOwner",
          "type": "address"
        }
      ],
      "name": "getMembers",
      "outputs": [
        {
          "internalType": "address[]",
          "name": "",
          "type": "address[]"
        }
      ],
      "stateMutability": "view",
      "type": "function"
    },
    {
      "inputs": [
        {
          "internalType": "address",
          "name": "_groupOwner",
          "type": "address"
        }
      ],
      "name": "isGroupExist",
      "outputs": [
        {
          "internalType": "bool",
          "name": "",
          "type": "bool"
        }
      ],
      "stateMutability": "view",
      "type": "function"
    },
    {
      "inputs": [],
      "name": "getGroupCount",
      "outputs": [
        {
          "internalType": "uint256",
          "name": "",
          "type": "uint256"
        }
      ],
      "stateMutability": "view",
      "type": "function"
    },
    {
      "inputs": [
        {
          "internalType": "uint256",
          "name": "index",
          "type": "uint256"
        }
      ],
      "name": "getGroup",
      "outputs": [
        {
          "internalType": "string",
          "name": "",
          "type": "string"
        },
        {
          "internalType": "address",
          "name": "",
          "type": "address"
        },
        {
          "internalType": "address[]",
          "name": "",
          "type": "address[]"
        },
        {
          "internalType": "string[]",
          "name": "",
          "type": "string[]"
        },
        {
          "internalType": "uint256[]",
          "name": "",
          "type": "uint256[]"
        }
      ],
      "stateMutability": "view",
      "type": "function"
    },
    {
      "inputs": [
        {
          "internalType": "address",
          "name": "_groupOwner",
          "type": "address"
        }
      ],
      "name": "getContributors",
      "outputs": [
        {
          "internalType": "address[]",
          "name": "",
          "type": "address[]"
        }
      ],
      "stateMutability": "view",
      "type": "function"
    },
    {
      "inputs": [
        {
          "internalType": "address",
          "name": "_groupOwner",
          "type": "address"
        }
      ],
      "name": "calculateAvg",
      "outputs": [
        {
          "internalType": "uint256",
          "name": "",
          "type": "uint256"
        }
      ],
      "stateMutability": "view",
      "type": "function"
    },
    {
      "inputs": [
        {
          "internalType": "address",
          "name": "_groupOwner",
          "type": "address"
        }
      ],
      "name": "splitwise",
      "outputs": [],
      "stateMutability": "nonpayable",
      "type": "function"
    },
    {
      "inputs": [
        {
          "internalType": "address",
          "name": "from",
          "type": "address"
        },
        {
          "internalType": "address",
          "name": "to",
          "type": "address"
        },
        {
          "internalType": "address",
          "name": "_groupOwner",
          "type": "address"
        }
      ],
      "name": "getTopay",
      "outputs": [
        {
          "internalType": "uint256",
          "name": "",
          "type": "uint256"
        }
      ],
      "stateMutability": "view",
      "type": "function"
    },
    {
      "inputs": [
        {
          "internalType": "address",
          "name": "_ownerAddress",
          "type": "address"
        }
      ],
      "name": "getMemberedGroups",
      "outputs": [
        {
          "internalType": "address[]",
          "name": "",
          "type": "address[]"
        },
        {
          "internalType": "string[]",
          "name": "",
          "type": "string[]"
        }
      ],
      "stateMutability": "view",
      "type": "function"
    }
  ],
  "bytecode": "0x608060405234801561001057600080fd5b506134fc806100206000396000f3fe608060405234801561001057600080fd5b50600436106100ea5760003560e01c80637020fc901161008c578063a3a409b211610066578063a3a409b214610283578063ae1da326146102b3578063ceb60654146102e3578063dc2ddcae14610317576100ea565b80637020fc901461020657806376d2b371146102375780637854462914610253576100ea565b8063208eed0b116100c8578063208eed0b1461015957806343e9658c1461018957806360fce18c146101b957806363d5e44d146101d5576100ea565b806306545a93146100ef57806315bbf19d1461010d5780631f651b3c14610129575b600080fd5b6100f7610333565b60405161010491906125ef565b60405180910390f35b6101276004803603810190610122919061267c565b610340565b005b610143600480360381019061013e91906126bc565b61051d565b60405161015091906125ef565b60405180910390f35b610173600480360381019061016e919061270f565b6105e9565b60405161018091906125ef565b60405180910390f35b6101a3600480360381019061019e919061270f565b6106db565b6040516101b091906127fa565b60405180910390f35b6101d360048036038101906101ce919061298e565b610839565b005b6101ef60048036038101906101ea919061270f565b610a7c565b6040516101fd929190612a90565b60405180910390f35b610220600480360381019061021b919061270f565b610b28565b60405161022e929190612bcc565b60405180910390f35b610251600480360381019061024c919061270f565b610e7e565b005b61026d6004803603810190610268919061270f565b611755565b60405161027a91906127fa565b60405180910390f35b61029d60048036038101906102989190612c03565b61182a565b6040516102aa9190612c3f565b60405180910390f35b6102cd60048036038101906102c8919061270f565b611869565b6040516102da9190612c75565b60405180910390f35b6102fd60048036038101906102f89190612c03565b6118c8565b60405161030e959493929190612d4e565b60405180910390f35b610331600480360381019061032c9190612dbd565b611d4a565b005b6000600180549050905090565b61034982611869565b610388576040517f08c379a000000000000000000000000000000000000000000000000000000000815260040161037f90612e52565b60405180910390fd5b60008060008473ffffffffffffffffffffffffffffffffffffffff1673ffffffffffffffffffffffffffffffffffffffff16815260200190815260200160002090508060020160008373ffffffffffffffffffffffffffffffffffffffff1673ffffffffffffffffffffffffffffffffffffffff16815260200190815260200160002060009054906101000a900460ff1615610459576040517f08c379a000000000000000000000000000000000000000000000000000000000815260040161045090612ebe565b60405180910390fd5b80600101829080600181540180825580915050600190039060005260206000200160009091909190916101000a81548173ffffffffffffffffffffffffffffffffffffffff021916908373ffffffffffffffffffffffffffffffffffffffff16021790555060018160020160008473ffffffffffffffffffffffffffffffffffffffff1673ffffffffffffffffffffffffffffffffffffffff16815260200190815260200160002060006101000a81548160ff021916908315150217905550505050565b6000806000808473ffffffffffffffffffffffffffffffffffffffff1673ffffffffffffffffffffffffffffffffffffffff16815260200190815260200160002090508060070160008673ffffffffffffffffffffffffffffffffffffffff1673ffffffffffffffffffffffffffffffffffffffff16815260200190815260200160002060008573ffffffffffffffffffffffffffffffffffffffff1673ffffffffffffffffffffffffffffffffffffffff168152602001908152602001600020549150509392505050565b60006105f482611869565b610633576040517f08c379a000000000000000000000000000000000000000000000000000000000815260040161062a90612e52565b60405180910390fd5b60008060008473ffffffffffffffffffffffffffffffffffffffff1673ffffffffffffffffffffffffffffffffffffffff16815260200190815260200160002090506000805b82600401548110156106be5782600301600082815260200190815260200160002060010154826106a99190612f0d565b915080806106b690612f41565b915050610679565b508160010180549050816106d29190612fb8565b92505050919050565b606060008060008473ffffffffffffffffffffffffffffffffffffffff1673ffffffffffffffffffffffffffffffffffffffff16815260200190815260200160002090506000816004015467ffffffffffffffff81111561073f5761073e612837565b5b60405190808252806020026020018201604052801561076d5781602001602082028036833780820191505090505b5090506000805b836004015481101561082d57600084600301600083815260200190815260200160002090508060020160009054906101000a900473ffffffffffffffffffffffffffffffffffffffff168484815181106107d1576107d0612fe9565b5b602002602001019073ffffffffffffffffffffffffffffffffffffffff16908173ffffffffffffffffffffffffffffffffffffffff1681525050828061081690612f41565b93505050808061082590612f41565b915050610774565b50819350505050919050565b61084284611869565b610881576040517f08c379a000000000000000000000000000000000000000000000000000000000815260040161087890612e52565b60405180910390fd5b60008060008673ffffffffffffffffffffffffffffffffffffffff1673ffffffffffffffffffffffffffffffffffffffff16815260200190815260200160002090508060020160003373ffffffffffffffffffffffffffffffffffffffff1673ffffffffffffffffffffffffffffffffffffffff16815260200190815260200160002060009054906101000a900460ff16610951576040517f08c379a000000000000000000000000000000000000000000000000000000000815260040161094890613064565b60405180910390fd5b8060020160008373ffffffffffffffffffffffffffffffffffffffff1673ffffffffffffffffffffffffffffffffffffffff16815260200190815260200160002060009054906101000a900460ff166109df576040517f08c379a00000000000000000000000000000000000000000000000000000000081526004016109d690613064565b60405180910390fd5b600081600301600083600401548152602001908152602001600020905084816000019081610a0d9190613290565b50838160010181905550828160020160006101000a81548173ffffffffffffffffffffffffffffffffffffffff021916908373ffffffffffffffffffffffffffffffffffffffff160217905550816004016000815480929190610a6f90612f41565b9190505550505050505050565b6000602052806000526040600020600091509050806000018054610a9f906130b3565b80601f0160208091040260200160405190810160405280929190818152602001828054610acb906130b3565b8015610b185780601f10610aed57610100808354040283529160200191610b18565b820191906000526020600020905b815481529060010190602001808311610afb57829003601f168201915b5050505050908060040154905082565b6060806000610b35610333565b905060008167ffffffffffffffff811115610b5357610b52612837565b5b604051908082528060200260200182016040528015610b815781602001602082028036833780820191505090505b50905060008267ffffffffffffffff811115610ba057610b9f612837565b5b604051908082528060200260200182016040528015610bd357816020015b6060815260200190600190039081610bbe5790505b50905060005b6000841115610e6f57600080600060018088610bf59190613362565b81548110610c0657610c05612fe9565b5b9060005260206000200160009054906101000a900473ffffffffffffffffffffffffffffffffffffffff1673ffffffffffffffffffffffffffffffffffffffff1673ffffffffffffffffffffffffffffffffffffffff168152602001908152602001600020905060005b8160010180549050811015610e5a57816001018181548110610c9557610c94612fe9565b5b9060005260206000200160009054906101000a900473ffffffffffffffffffffffffffffffffffffffff1673ffffffffffffffffffffffffffffffffffffffff168973ffffffffffffffffffffffffffffffffffffffff1603610e475760018087610d009190613362565b81548110610d1157610d10612fe9565b5b9060005260206000200160009054906101000a900473ffffffffffffffffffffffffffffffffffffffff16858481518110610d4f57610d4e612fe9565b5b602002602001019073ffffffffffffffffffffffffffffffffffffffff16908173ffffffffffffffffffffffffffffffffffffffff1681525050816000018054610d98906130b3565b80601f0160208091040260200160405190810160405280929190818152602001828054610dc4906130b3565b8015610e115780601f10610de657610100808354040283529160200191610e11565b820191906000526020600020905b815481529060010190602001808311610df457829003601f168201915b5050505050848481518110610e2957610e28612fe9565b5b60200260200101819052508280610e3f90612f41565b935050610e5a565b8080610e5290612f41565b915050610c70565b508480610e6690613396565b95505050610bd9565b82829550955050505050915091565b6000610e89826105e9565b9050610e9482611f0d565b60008060008473ffffffffffffffffffffffffffffffffffffffff1673ffffffffffffffffffffffffffffffffffffffff16815260200190815260200160002090505b6000816006018054905011156117505760005b816001018054905081101561174a576000826001018281548110610f1157610f10612fe9565b5b9060005260206000200160009054906101000a900473ffffffffffffffffffffffffffffffffffffffff169050838360070160008373ffffffffffffffffffffffffffffffffffffffff1673ffffffffffffffffffffffffffffffffffffffff16815260200190815260200160002060008373ffffffffffffffffffffffffffffffffffffffff1673ffffffffffffffffffffffffffffffffffffffff16815260200190815260200160002054111561173657600083600601600081548110610fdd57610fdc612fe9565b5b9060005260206000200160009054906101000a900473ffffffffffffffffffffffffffffffffffffffff16905084858560070160008573ffffffffffffffffffffffffffffffffffffffff1673ffffffffffffffffffffffffffffffffffffffff16815260200190815260200160002060008573ffffffffffffffffffffffffffffffffffffffff1673ffffffffffffffffffffffffffffffffffffffff168152602001908152602001600020546110959190613362565b11156112dc5760008460070160008373ffffffffffffffffffffffffffffffffffffffff1673ffffffffffffffffffffffffffffffffffffffff16815260200190815260200160002060008373ffffffffffffffffffffffffffffffffffffffff1673ffffffffffffffffffffffffffffffffffffffff16815260200190815260200160002054866111279190613362565b9050808560070160008573ffffffffffffffffffffffffffffffffffffffff1673ffffffffffffffffffffffffffffffffffffffff16815260200190815260200160002060008573ffffffffffffffffffffffffffffffffffffffff1673ffffffffffffffffffffffffffffffffffffffff16815260200190815260200160002060008282546111b79190613362565b92505081905550808560070160008473ffffffffffffffffffffffffffffffffffffffff1673ffffffffffffffffffffffffffffffffffffffff16815260200190815260200160002060008573ffffffffffffffffffffffffffffffffffffffff1673ffffffffffffffffffffffffffffffffffffffff16815260200190815260200160002081905550808560070160008473ffffffffffffffffffffffffffffffffffffffff1673ffffffffffffffffffffffffffffffffffffffff16815260200190815260200160002060008473ffffffffffffffffffffffffffffffffffffffff1673ffffffffffffffffffffffffffffffffffffffff16815260200190815260200160002060008282546112cf9190612f0d565b9250508190555050611519565b6000858560070160008573ffffffffffffffffffffffffffffffffffffffff1673ffffffffffffffffffffffffffffffffffffffff16815260200190815260200160002060008573ffffffffffffffffffffffffffffffffffffffff1673ffffffffffffffffffffffffffffffffffffffff168152602001908152602001600020546113689190613362565b9050808560070160008473ffffffffffffffffffffffffffffffffffffffff1673ffffffffffffffffffffffffffffffffffffffff16815260200190815260200160002060008573ffffffffffffffffffffffffffffffffffffffff1673ffffffffffffffffffffffffffffffffffffffff16815260200190815260200160002081905550808560070160008473ffffffffffffffffffffffffffffffffffffffff1673ffffffffffffffffffffffffffffffffffffffff16815260200190815260200160002060008473ffffffffffffffffffffffffffffffffffffffff1673ffffffffffffffffffffffffffffffffffffffff168152602001908152602001600020600082825461147b9190612f0d565b92505081905550808560070160008573ffffffffffffffffffffffffffffffffffffffff1673ffffffffffffffffffffffffffffffffffffffff16815260200190815260200160002060008573ffffffffffffffffffffffffffffffffffffffff1673ffffffffffffffffffffffffffffffffffffffff16815260200190815260200160002060008282546115109190613362565b92505081905550505b848460070160008373ffffffffffffffffffffffffffffffffffffffff1673ffffffffffffffffffffffffffffffffffffffff16815260200190815260200160002060008373ffffffffffffffffffffffffffffffffffffffff1673ffffffffffffffffffffffffffffffffffffffff16815260200190815260200160002054036117345760005b8460060180549050811015611732578173ffffffffffffffffffffffffffffffffffffffff168560060182815481106115dd576115dc612fe9565b5b9060005260206000200160009054906101000a900473ffffffffffffffffffffffffffffffffffffffff1673ffffffffffffffffffffffffffffffffffffffff160361171f57846006016001866006018054905061163b9190613362565b8154811061164c5761164b612fe9565b5b9060005260206000200160009054906101000a900473ffffffffffffffffffffffffffffffffffffffff1685600601828154811061168d5761168c612fe9565b5b9060005260206000200160006101000a81548173ffffffffffffffffffffffffffffffffffffffff021916908373ffffffffffffffffffffffffffffffffffffffff160217905550846006018054806116e9576116e86133bf565b5b6001900381819060005260206000200160006101000a81549073ffffffffffffffffffffffffffffffffffffffff021916905590555b808061172a90612f41565b9150506115a1565b505b505b50808061174290612f41565b915050610eea565b50610ed7565b505050565b606060008060008473ffffffffffffffffffffffffffffffffffffffff1673ffffffffffffffffffffffffffffffffffffffff16815260200190815260200160002090508060010180548060200260200160405190810160405280929190818152602001828054801561181d57602002820191906000526020600020905b8160009054906101000a900473ffffffffffffffffffffffffffffffffffffffff1673ffffffffffffffffffffffffffffffffffffffff16815260200190600101908083116117d3575b5050505050915050919050565b6001818154811061183a57600080fd5b906000526020600020016000915054906101000a900473ffffffffffffffffffffffffffffffffffffffff1681565b6000806000808473ffffffffffffffffffffffffffffffffffffffff1673ffffffffffffffffffffffffffffffffffffffff168152602001908152602001600020905060008160000180546118bd906130b3565b905011915050919050565b6060600060608060606001805490508610611918576040517f08c379a000000000000000000000000000000000000000000000000000000000815260040161190f9061343a565b60405180910390fd5b60006001878154811061192e5761192d612fe9565b5b9060005260206000200160009054906101000a900473ffffffffffffffffffffffffffffffffffffffff16905060008060008373ffffffffffffffffffffffffffffffffffffffff1673ffffffffffffffffffffffffffffffffffffffff16815260200190815260200160002090506000816004015467ffffffffffffffff8111156119bd576119bc612837565b5b6040519080825280602002602001820160405280156119eb5781602001602082028036833780820191505090505b5090506000826004015467ffffffffffffffff811115611a0e57611a0d612837565b5b604051908082528060200260200182016040528015611a4157816020015b6060815260200190600190039081611a2c5790505b5090506000836004015467ffffffffffffffff811115611a6457611a63612837565b5b604051908082528060200260200182016040528015611a925781602001602082028036833780820191505090505b50905060005b8460040154811015611c1257600085600301600083815260200190815260200160002090508060020160009054906101000a900473ffffffffffffffffffffffffffffffffffffffff16858381518110611af557611af4612fe9565b5b602002602001019073ffffffffffffffffffffffffffffffffffffffff16908173ffffffffffffffffffffffffffffffffffffffff1681525050806000018054611b3e906130b3565b80601f0160208091040260200160405190810160405280929190818152602001828054611b6a906130b3565b8015611bb75780601f10611b8c57610100808354040283529160200191611bb7565b820191906000526020600020905b815481529060010190602001808311611b9a57829003601f168201915b5050505050848381518110611bcf57611bce612fe9565b5b60200260200101819052508060010154838381518110611bf257611bf1612fe9565b5b602002602001018181525050508080611c0a90612f41565b915050611a98565b508360000185856001018484848054611c2a906130b3565b80601f0160208091040260200160405190810160405280929190818152602001828054611c56906130b3565b8015611ca35780601f10611c7857610100808354040283529160200191611ca3565b820191906000526020600020905b815481529060010190602001808311611c8657829003601f168201915b5050505050945082805480602002602001604051908101604052809291908181526020018280548015611d2b57602002820191906000526020600020905b8160009054906101000a900473ffffffffffffffffffffffffffffffffffffffff1673ffffffffffffffffffffffffffffffffffffffff1681526020019060010190808311611ce1575b5050505050925099509950995099509950505050505091939590929450565b60008060003373ffffffffffffffffffffffffffffffffffffffff1673ffffffffffffffffffffffffffffffffffffffff1681526020019081526020016000209050611d9533611869565b15611dd5576040517f08c379a0000000000000000000000000000000000000000000000000000000008152600401611dcc906134a6565b60405180910390fd5b81816000019081611de69190613290565b5080600101339080600181540180825580915050600190039060005260206000200160009091909190916101000a81548173ffffffffffffffffffffffffffffffffffffffff021916908373ffffffffffffffffffffffffffffffffffffffff16021790555060018160020160003373ffffffffffffffffffffffffffffffffffffffff1673ffffffffffffffffffffffffffffffffffffffff16815260200190815260200160002060006101000a81548160ff0219169083151502179055506001339080600181540180825580915050600190039060005260206000200160009091909190916101000a81548173ffffffffffffffffffffffffffffffffffffffff021916908373ffffffffffffffffffffffffffffffffffffffff1602179055505050565b6000611f18826105e9565b905060008060008473ffffffffffffffffffffffffffffffffffffffff1673ffffffffffffffffffffffffffffffffffffffff1681526020019081526020016000209050611f6583612440565b60005b816004015481101561224e57600082600301600083815260200190815260200160002090508260020160008260020160009054906101000a900473ffffffffffffffffffffffffffffffffffffffff1673ffffffffffffffffffffffffffffffffffffffff1673ffffffffffffffffffffffffffffffffffffffff16815260200190815260200160002060009054906101000a900460ff1661203f576040517f08c379a000000000000000000000000000000000000000000000000000000000815260040161203690613064565b60405180910390fd5b80600101548360050160008360020160009054906101000a900473ffffffffffffffffffffffffffffffffffffffff1673ffffffffffffffffffffffffffffffffffffffff1673ffffffffffffffffffffffffffffffffffffffff1681526020019081526020016000208190555060005b8360010180549050811015612239578160020160009054906101000a900473ffffffffffffffffffffffffffffffffffffffff1673ffffffffffffffffffffffffffffffffffffffff168460010182815481106121105761210f612fe9565b5b9060005260206000200160009054906101000a900473ffffffffffffffffffffffffffffffffffffffff1673ffffffffffffffffffffffffffffffffffffffff16036122265781600101548460070160008460020160009054906101000a900473ffffffffffffffffffffffffffffffffffffffff1673ffffffffffffffffffffffffffffffffffffffff1673ffffffffffffffffffffffffffffffffffffffff16815260200190815260200160002060008460020160009054906101000a900473ffffffffffffffffffffffffffffffffffffffff1673ffffffffffffffffffffffffffffffffffffffff1673ffffffffffffffffffffffffffffffffffffffff168152602001908152602001600020819055505b808061223190612f41565b9150506120b0565b5050808061224690612f41565b915050611f68565b5060005b816001018054905081101561243a5781600201600083600101838154811061227d5761227c612fe9565b5b9060005260206000200160009054906101000a900473ffffffffffffffffffffffffffffffffffffffff1673ffffffffffffffffffffffffffffffffffffffff1673ffffffffffffffffffffffffffffffffffffffff16815260200190815260200160002060009054906101000a900460ff16158061237c57508282600501600084600101848154811061231457612313612fe9565b5b9060005260206000200160009054906101000a900473ffffffffffffffffffffffffffffffffffffffff1673ffffffffffffffffffffffffffffffffffffffff1673ffffffffffffffffffffffffffffffffffffffff16815260200190815260200160002054105b15612427578160060182600101828154811061239b5761239a612fe9565b5b9060005260206000200160009054906101000a900473ffffffffffffffffffffffffffffffffffffffff169080600181540180825580915050600190039060005260206000200160009091909190916101000a81548173ffffffffffffffffffffffffffffffffffffffff021916908373ffffffffffffffffffffffffffffffffffffffff1602179055505b808061243290612f41565b915050612252565b50505050565b60008060008373ffffffffffffffffffffffffffffffffffffffff1673ffffffffffffffffffffffffffffffffffffffff168152602001908152602001600020905060005b81600101805490508110156125d15760005b82600101805490508110156125bd5760008360070160008560010185815481106124c4576124c3612fe9565b5b9060005260206000200160009054906101000a900473ffffffffffffffffffffffffffffffffffffffff1673ffffffffffffffffffffffffffffffffffffffff1673ffffffffffffffffffffffffffffffffffffffff168152602001908152602001600020600085600101848154811061254157612540612fe9565b5b9060005260206000200160009054906101000a900473ffffffffffffffffffffffffffffffffffffffff1673ffffffffffffffffffffffffffffffffffffffff1673ffffffffffffffffffffffffffffffffffffffff1681526020019081526020016000208190555080806125b590612f41565b915050612497565b5080806125c990612f41565b915050612485565b505050565b6000819050919050565b6125e9816125d6565b82525050565b600060208201905061260460008301846125e0565b92915050565b6000604051905090565b600080fd5b600080fd5b600073ffffffffffffffffffffffffffffffffffffffff82169050919050565b60006126498261261e565b9050919050565b6126598161263e565b811461266457600080fd5b50565b60008135905061267681612650565b92915050565b6000806040838503121561269357612692612614565b5b60006126a185828601612667565b92505060206126b285828601612667565b9150509250929050565b6000806000606084860312156126d5576126d4612614565b5b60006126e386828701612667565b93505060206126f486828701612667565b925050604061270586828701612667565b9150509250925092565b60006020828403121561272557612724612614565b5b600061273384828501612667565b91505092915050565b600081519050919050565b600082825260208201905092915050565b6000819050602082019050919050565b6127718161263e565b82525050565b60006127838383612768565b60208301905092915050565b6000602082019050919050565b60006127a78261273c565b6127b18185612747565b93506127bc83612758565b8060005b838110156127ed5781516127d48882612777565b97506127df8361278f565b9250506001810190506127c0565b5085935050505092915050565b60006020820190508181036000830152612814818461279c565b905092915050565b600080fd5b600080fd5b6000601f19601f8301169050919050565b7f4e487b7100000000000000000000000000000000000000000000000000000000600052604160045260246000fd5b61286f82612826565b810181811067ffffffffffffffff8211171561288e5761288d612837565b5b80604052505050565b60006128a161260a565b90506128ad8282612866565b919050565b600067ffffffffffffffff8211156128cd576128cc612837565b5b6128d682612826565b9050602081019050919050565b82818337600083830152505050565b6000612905612900846128b2565b612897565b90508281526020810184848401111561292157612920612821565b5b61292c8482856128e3565b509392505050565b600082601f8301126129495761294861281c565b5b81356129598482602086016128f2565b91505092915050565b61296b816125d6565b811461297657600080fd5b50565b60008135905061298881612962565b92915050565b600080600080608085870312156129a8576129a7612614565b5b60006129b687828801612667565b945050602085013567ffffffffffffffff8111156129d7576129d6612619565b5b6129e387828801612934565b93505060406129f487828801612979565b9250506060612a0587828801612667565b91505092959194509250565b600081519050919050565b600082825260208201905092915050565b60005b83811015612a4b578082015181840152602081019050612a30565b60008484015250505050565b6000612a6282612a11565b612a6c8185612a1c565b9350612a7c818560208601612a2d565b612a8581612826565b840191505092915050565b60006040820190508181036000830152612aaa8185612a57565b9050612ab960208301846125e0565b9392505050565b600081519050919050565b600082825260208201905092915050565b6000819050602082019050919050565b600082825260208201905092915050565b6000612b0882612a11565b612b128185612aec565b9350612b22818560208601612a2d565b612b2b81612826565b840191505092915050565b6000612b428383612afd565b905092915050565b6000602082019050919050565b6000612b6282612ac0565b612b6c8185612acb565b935083602082028501612b7e85612adc565b8060005b85811015612bba5784840389528151612b9b8582612b36565b9450612ba683612b4a565b925060208a01995050600181019050612b82565b50829750879550505050505092915050565b60006040820190508181036000830152612be6818561279c565b90508181036020830152612bfa8184612b57565b90509392505050565b600060208284031215612c1957612c18612614565b5b6000612c2784828501612979565b91505092915050565b612c398161263e565b82525050565b6000602082019050612c546000830184612c30565b92915050565b60008115159050919050565b612c6f81612c5a565b82525050565b6000602082019050612c8a6000830184612c66565b92915050565b600081519050919050565b600082825260208201905092915050565b6000819050602082019050919050565b612cc5816125d6565b82525050565b6000612cd78383612cbc565b60208301905092915050565b6000602082019050919050565b6000612cfb82612c90565b612d058185612c9b565b9350612d1083612cac565b8060005b83811015612d41578151612d288882612ccb565b9750612d3383612ce3565b925050600181019050612d14565b5085935050505092915050565b600060a0820190508181036000830152612d688188612a57565b9050612d776020830187612c30565b8181036040830152612d89818661279c565b90508181036060830152612d9d8185612b57565b90508181036080830152612db18184612cf0565b90509695505050505050565b600060208284031215612dd357612dd2612614565b5b600082013567ffffffffffffffff811115612df157612df0612619565b5b612dfd84828501612934565b91505092915050565b7f47726f757020646f6573206e6f74206578697374000000000000000000000000600082015250565b6000612e3c601483612a1c565b9150612e4782612e06565b602082019050919050565b60006020820190508181036000830152612e6b81612e2f565b9050919050565b7f4d656d62657220616c7265616479206578697374730000000000000000000000600082015250565b6000612ea8601583612a1c565b9150612eb382612e72565b602082019050919050565b60006020820190508181036000830152612ed781612e9b565b9050919050565b7f4e487b7100000000000000000000000000000000000000000000000000000000600052601160045260246000fd5b6000612f18826125d6565b9150612f23836125d6565b9250828201905080821115612f3b57612f3a612ede565b5b92915050565b6000612f4c826125d6565b91507fffffffffffffffffffffffffffffffffffffffffffffffffffffffffffffffff8203612f7e57612f7d612ede565b5b600182019050919050565b7f4e487b7100000000000000000000000000000000000000000000000000000000600052601260045260246000fd5b6000612fc3826125d6565b9150612fce836125d6565b925082612fde57612fdd612f89565b5b828204905092915050565b7f4e487b7100000000000000000000000000000000000000000000000000000000600052603260045260246000fd5b7f4e6f742061206d656d626572206f66207468652067726f757000000000000000600082015250565b600061304e601983612a1c565b915061305982613018565b602082019050919050565b6000602082019050818103600083015261307d81613041565b9050919050565b7f4e487b7100000000000000000000000000000000000000000000000000000000600052602260045260246000fd5b600060028204905060018216806130cb57607f821691505b6020821081036130de576130dd613084565b5b50919050565b60008190508160005260206000209050919050565b60006020601f8301049050919050565b600082821b905092915050565b6000600883026131467fffffffffffffffffffffffffffffffffffffffffffffffffffffffffffffffff82613109565b6131508683613109565b95508019841693508086168417925050509392505050565b6000819050919050565b600061318d613188613183846125d6565b613168565b6125d6565b9050919050565b6000819050919050565b6131a783613172565b6131bb6131b382613194565b848454613116565b825550505050565b600090565b6131d06131c3565b6131db81848461319e565b505050565b5b818110156131ff576131f46000826131c8565b6001810190506131e1565b5050565b601f82111561324457613215816130e4565b61321e846130f9565b8101602085101561322d578190505b613241613239856130f9565b8301826131e0565b50505b505050565b600082821c905092915050565b600061326760001984600802613249565b1980831691505092915050565b60006132808383613256565b9150826002028217905092915050565b61329982612a11565b67ffffffffffffffff8111156132b2576132b1612837565b5b6132bc82546130b3565b6132c7828285613203565b600060209050601f8311600181146132fa57600084156132e8578287015190505b6132f28582613274565b86555061335a565b601f198416613308866130e4565b60005b828110156133305784890151825560018201915060208501945060208101905061330b565b8683101561334d5784890151613349601f891682613256565b8355505b6001600288020188555050505b505050505050565b600061336d826125d6565b9150613378836125d6565b92508282039050818111156133905761338f612ede565b5b92915050565b60006133a1826125d6565b9150600082036133b4576133b3612ede565b5b600182039050919050565b7f4e487b7100000000000000000000000000000000000000000000000000000000600052603160045260246000fd5b7f496e76616c69642067726f757020696e64657800000000000000000000000000600082015250565b6000613424601383612a1c565b915061342f826133ee565b602082019050919050565b6000602082019050818103600083015261345381613417565b9050919050565b7f47726f757020616c726561647920657869737473000000000000000000000000600082015250565b6000613490601483612a1c565b915061349b8261345a565b602082019050919050565b600060208201905081810360008301526134bf81613483565b905091905056fea2646970667358221220b9d6e84a0661deb3bbcd8ddfa0727a1a995f5d7a265c78fed641c4b0749693ec64736f6c63430008130033",
  "immutableReferences": {},
  "source": "//SPDX-License-Identifier:MIT\r\npragma solidity ^0.8.10;\r\n\r\n\r\ncontract Sikka{\r\n    \r\n    struct Expense {\r\n        string description;\r\n        uint256 amount;\r\n        address contributor;\r\n        // bool isPaid;\r\n    }\r\n\r\n    struct Group {\r\n        string name;\r\n        address [] members;\r\n        mapping(address => bool) isMember;\r\n        mapping(uint256=>Expense) expenses;\r\n        uint256 expenseCount;\r\n        mapping (address => uint256) contributors;\r\n        address[] nonpaid;\r\n        mapping(address=>mapping(address=>uint256))  topay;\r\n    }\r\n    \r\n    mapping(address => Group) public groups;\r\n    address[] public groupOwners; // Keep track of group owners\r\n\r\n    function createGroup(string memory _groupName) public {\r\n        Group storage group = groups[msg.sender];\r\n        require(!isGroupExist(msg.sender), \"Group already exists\");\r\n        group.name = _groupName;\r\n        group.members.push(msg.sender);\r\n        group.isMember[msg.sender] = true;\r\n        groupOwners.push(msg.sender); // Add the group owner to the groupOwners array\r\n    }\r\n\r\n    function addExpense(\r\n        address _groupOwner,\r\n        string memory _expenseDescription,\r\n        uint256 _expenseAmount,\r\n        address _contributor\r\n    ) public {\r\n        require(isGroupExist(_groupOwner), \"Group does not exist\");\r\n        Group storage group = groups[_groupOwner];\r\n        require(group.isMember[msg.sender], \"Not a member of the group\");\r\n        require(group.isMember[_contributor], \"Not a member of the group\");\r\n\r\n        // Create Expense object\r\n        Expense storage expense = group.expenses[group.expenseCount];\r\n        expense.description = _expenseDescription;\r\n        expense.amount = _expenseAmount;\r\n        expense.contributor=_contributor ;\r\n        // expense.isPaid = false;\r\n        // Increment expense count\r\n        group.expenseCount++;\r\n    }\r\n\r\n    function addMembers(address _groupOwner,address  _member)\r\n    public{\r\n        require(isGroupExist(_groupOwner), \"Group does not exist\");\r\n        Group storage group = groups[_groupOwner];\r\n        require(!group.isMember[_member], \"Member already exists\");\r\n        group.members.push(_member);\r\n        group.isMember[_member] = true;\r\n    }\r\n\r\n    function getMembers(address _groupOwner) public view returns (address[] memory){\r\n        Group storage group= groups[_groupOwner];\r\n        return group.members;\r\n    }\r\n\r\n    function isGroupExist(address _groupOwner) public view returns (bool) {\r\n        Group storage group = groups[_groupOwner];\r\n        return bytes(group.name).length > 0;\r\n    }\r\n\r\n    //groupCount\r\n     function getGroupCount() public view returns (uint256) {\r\n        return groupOwners.length;\r\n    }\r\n\r\n     // Function to retrieve a specific group by index\r\n    function getGroup(uint256 index) public view returns (string memory, address,address[] memory, string[] memory, uint256[] memory) {\r\n        require(index < groupOwners.length, \"Invalid group index\");\r\n        address groupOwner = groupOwners[index]; // Get the group owner at the given index\r\n        Group storage group = groups[groupOwner]; // Retrieve the Group struct from the mapping\r\n        address[] memory contributors = new address[](group.expenseCount);\r\n        string[] memory descriptions = new string[](group.expenseCount);\r\n        uint256[] memory amounts = new uint256[](group.expenseCount);\r\n        // bool[] memory isPaid = new bool[](group.expenseCount);\r\n\r\n        for (uint256 i = 0; i < group.expenseCount; i++) {\r\n            Expense storage expense = group.expenses[i];\r\n            contributors[i]=expense.contributor;\r\n            descriptions[i] = expense.description;\r\n            amounts[i] = expense.amount;\r\n            // isPaid[i] = expense.isPaid;\r\n        }\r\n        return (group.name, groupOwner,group.members, descriptions, amounts);\r\n    }\r\n\r\n    function getContributors(address _groupOwner) public view returns(address[] memory ){\r\n        Group storage group = groups[_groupOwner];\r\n        address [] memory contributorList=new address[](group.expenseCount);\r\n        uint index = 0;\r\n        for(uint i = 0;i<group.expenseCount;i++ ){\r\n            Expense storage expense = group.expenses[i];\r\n            contributorList[index]=expense.contributor;\r\n            index ++;\r\n        }  \r\n        return contributorList;\r\n    }\r\n\r\n\r\n   //calculate average\r\n   function calculateAvg(address _groupOwner) public view returns(uint256){\r\n       require(isGroupExist(_groupOwner), \"Group does not exist\");\r\n       Group storage group = groups[_groupOwner];\r\n       uint256 sum = 0;\r\n       for(uint256 i = 0; i<group.expenseCount;i++){\r\n           sum += group.expenses[i].amount; \r\n       }\r\n       return (sum/group.members.length);\r\n   }\r\n\r\n    //initialize topay as {A:{A:9}\r\n   function initializeTopay(address _groupOwner) internal {\r\n       Group storage group = groups[_groupOwner];\r\n        for (uint256 i=0; i<group.members.length; i++) {\r\n            for (uint256 j=0; j<group.members.length; j++) {\r\n                group.topay[group.members[i]][group.members[j]] = 0;\r\n            }\r\n        }\r\n    }\r\n\r\n   function markContributor(address _groupOwner) internal {\r\n        uint256 avg = calculateAvg(_groupOwner);\r\n        Group storage group = groups[_groupOwner];\r\n        initializeTopay(_groupOwner);\r\n        for (uint256 i=0; i<group.expenseCount; i++) {\r\n            Expense storage expense = group.expenses[i];\r\n            require(group.isMember[expense.contributor], \"Not a member of the group\");\r\n            \r\n                group.contributors[expense.contributor] = expense.amount;\r\n                for (uint256 j=0; j<group.members.length; j++) {\r\n                        if (group.members[j] == expense.contributor) {\r\n                            group.topay[expense.contributor][expense.contributor] = expense.amount;\r\n                        }\r\n                }\r\n            \r\n        }\r\n        for (uint256 i=0; i<group.members.length; i++) {\r\n            if (!group.isMember[group.members[i]] || group.contributors[group.members[i]] < avg) {\r\n                group.nonpaid.push(group.members[i]);\r\n            }\r\n        }\r\n    \r\n    }\r\n\r\n    function splitwise(address _groupOwner) public {\r\n        uint256 avg = calculateAvg(_groupOwner);\r\n        markContributor( _groupOwner);\r\n        Group storage group = groups[_groupOwner];\r\n        while(group.nonpaid.length > 0) {\r\n            for(uint256 i = 0; i < group.members.length; i++) {\r\n                address member = group.members[i];\r\n                if(group.topay[member][member] > avg) {\r\n                    address j = group.nonpaid[0];\r\n                    if(group.topay[member][member] - avg > avg) {\r\n                        uint256 pay = avg - group.topay[j][j];\r\n                        group.topay[member][member] -= pay;\r\n                        group.topay[j][member] = pay;\r\n                        group.topay[j][j] += pay;\r\n                    }\r\n                    else {\r\n                        uint256 amt = group.topay[member][member] - avg;\r\n                        group.topay[j][member] = amt;\r\n                        group.topay[j][j] += amt;\r\n                        group.topay[member][member] -= amt;\r\n                    }\r\n                    if(group.topay[j][j] == avg) {\r\n                        for(uint256 k = 0; k < group.nonpaid.length; k++) {\r\n                            if(group.nonpaid[k] == j) {\r\n                                group.nonpaid[k] = group.nonpaid[group.nonpaid.length-1];\r\n                                group.nonpaid.pop();\r\n                            }\r\n                        }\r\n                    }\r\n                }\r\n            }\r\n        }\r\n    }\r\n\r\n    function getTopay(address from, address to, address _groupOwner) public view returns(uint256) {\r\n        Group storage group = groups[_groupOwner];\r\n        return group.topay[from][to];\r\n    }\r\n\r\n    function getMemberedGroups(address _ownerAddress) public view returns (address[] memory, string[] memory){\r\n        uint256 groupCount = getGroupCount();\r\n        address[] memory groupList = new address[](groupCount);\r\n        string[] memory groupNameList= new string[](groupCount);\r\n        uint256 index = 0;\r\n        while (groupCount > 0) {\r\n            Group storage group = groups[groupOwners[groupCount - 1]];\r\n            for (uint256 i = 0; i < group.members.length; i++) {\r\n                if (_ownerAddress == group.members[i]){\r\n                    groupList[index] = groupOwners[groupCount - 1];\r\n                    groupNameList[index]=group.name;\r\n                    index++;\r\n                    break;\r\n                }\r\n            }\r\n            groupCount--;\r\n        }\r\n        return (groupList,groupNameList);\r\n    }\r\n\r\n    \r\n\r\n}",
  "sourcePath": "D:\\BlockChain\\BlockchainProject\\blockchain\\contracts\\Sikka.sol",
  "compiler": {
    "name": "solc",
    "version": "0.8.19+commit.7dd6d404.Emscripten.clang"
  },
  "schemaVersion": "3.4.13",
  "updatedAt": "2023-05-13T08:37:05.290Z",
  "devdoc": {
    "kind": "dev",
    "methods": {},
    "version": 1
  },
  "userdoc": {
    "kind": "user",
    "methods": {},
    "version": 1
  }
}