{
  "contractName": "Sikka",
  "abi": [
    {
      "inputs": [
        {
          "internalType": "uint256",
          "name": "",
          "type": "uint256"
        }
      ],
      "name": "groupOwners",
      "outputs": [
        {
          "internalType": "address",
          "name": "",
          "type": "address"
        }
      ],
      "stateMutability": "view",
      "type": "function",
      "constant": true
    },
    {
      "inputs": [
        {
          "internalType": "address",
          "name": "",
          "type": "address"
        }
      ],
      "name": "groups",
      "outputs": [
        {
          "internalType": "string",
          "name": "name",
          "type": "string"
        },
        {
          "internalType": "uint256",
          "name": "expenseCount",
          "type": "uint256"
        }
      ],
      "stateMutability": "view",
      "type": "function",
      "constant": true
    },
    {
      "inputs": [
        {
          "internalType": "string",
          "name": "_groupName",
          "type": "string"
        }
      ],
      "name": "createGroup",
      "outputs": [],
      "stateMutability": "nonpayable",
      "type": "function"
    },
    {
      "inputs": [
        {
          "internalType": "address",
          "name": "_groupOwner",
          "type": "address"
        },
        {
          "internalType": "string",
          "name": "_expenseDescription",
          "type": "string"
        },
        {
          "internalType": "uint256",
          "name": "_expenseAmount",
          "type": "uint256"
        },
        {
          "internalType": "address",
          "name": "_contributor",
          "type": "address"
        }
      ],
      "name": "addExpense",
      "outputs": [],
      "stateMutability": "nonpayable",
      "type": "function"
    },
    {
      "inputs": [
        {
          "internalType": "address",
          "name": "_groupOwner",
          "type": "address"
        },
        {
          "internalType": "address",
          "name": "_member",
          "type": "address"
        }
      ],
      "name": "addMembers",
      "outputs": [],
      "stateMutability": "nonpayable",
      "type": "function"
    },
    {
      "inputs": [
        {
          "internalType": "address",
          "name": "_groupOwner",
          "type": "address"
        }
      ],
      "name": "getMembers",
      "outputs": [
        {
          "internalType": "address[]",
          "name": "",
          "type": "address[]"
        }
      ],
      "stateMutability": "view",
      "type": "function",
      "constant": true
    },
    {
      "inputs": [
        {
          "internalType": "address",
          "name": "_groupOwner",
          "type": "address"
        }
      ],
      "name": "isGroupExist",
      "outputs": [
        {
          "internalType": "bool",
          "name": "",
          "type": "bool"
        }
      ],
      "stateMutability": "view",
      "type": "function",
      "constant": true
    },
    {
      "inputs": [],
      "name": "getGroupCount",
      "outputs": [
        {
          "internalType": "uint256",
          "name": "",
          "type": "uint256"
        }
      ],
      "stateMutability": "view",
      "type": "function",
      "constant": true
    },
    {
      "inputs": [
        {
          "internalType": "uint256",
          "name": "index",
          "type": "uint256"
        }
      ],
      "name": "getGroup",
      "outputs": [
        {
          "internalType": "string",
          "name": "",
          "type": "string"
        },
        {
          "internalType": "address",
          "name": "",
          "type": "address"
        },
        {
          "internalType": "address[]",
          "name": "",
          "type": "address[]"
        },
        {
          "internalType": "string[]",
          "name": "",
          "type": "string[]"
        },
        {
          "internalType": "uint256[]",
          "name": "",
          "type": "uint256[]"
        }
      ],
      "stateMutability": "view",
      "type": "function",
      "constant": true
    },
    {
      "inputs": [
        {
          "internalType": "address",
          "name": "_groupOwner",
          "type": "address"
        }
      ],
      "name": "getContributors",
      "outputs": [
        {
          "internalType": "address[]",
          "name": "",
          "type": "address[]"
        }
      ],
      "stateMutability": "view",
      "type": "function",
      "constant": true
    },
    {
      "inputs": [
        {
          "internalType": "address",
          "name": "_groupOwner",
          "type": "address"
        },
        {
          "internalType": "address",
          "name": "_contributor",
          "type": "address"
        }
      ],
      "name": "getContributorAmount",
      "outputs": [
        {
          "internalType": "uint256",
          "name": "",
          "type": "uint256"
        }
      ],
      "stateMutability": "view",
      "type": "function",
      "constant": true
    },
    {
      "inputs": [
        {
          "internalType": "address",
          "name": "_groupOwner",
          "type": "address"
        },
        {
          "internalType": "uint256",
          "name": "_expenseIndex",
          "type": "uint256"
        }
      ],
      "name": "getExpense",
      "outputs": [
        {
          "internalType": "string",
          "name": "",
          "type": "string"
        },
        {
          "internalType": "uint256",
          "name": "",
          "type": "uint256"
        },
        {
          "internalType": "address",
          "name": "",
          "type": "address"
        }
      ],
      "stateMutability": "view",
      "type": "function",
      "constant": true
    },
    {
      "inputs": [
        {
          "internalType": "address",
          "name": "_groupOwner",
          "type": "address"
        }
      ],
      "name": "splitwise",
      "outputs": [],
      "stateMutability": "nonpayable",
      "type": "function"
    },
    {
      "inputs": [
        {
          "internalType": "address",
          "name": "from",
          "type": "address"
        },
        {
          "internalType": "address",
          "name": "to",
          "type": "address"
        },
        {
          "internalType": "address",
          "name": "_groupOwner",
          "type": "address"
        }
      ],
      "name": "getTopay",
      "outputs": [
        {
          "internalType": "int256",
          "name": "",
          "type": "int256"
        }
      ],
      "stateMutability": "view",
      "type": "function",
      "constant": true
    },
    {
      "inputs": [
        {
          "internalType": "address",
          "name": "_ownerAddress",
          "type": "address"
        }
      ],
      "name": "getMemberedGroups",
      "outputs": [
        {
          "internalType": "address[]",
          "name": "",
          "type": "address[]"
        },
        {
          "internalType": "string[]",
          "name": "",
          "type": "string[]"
        }
      ],
      "stateMutability": "view",
      "type": "function",
      "constant": true
    },
    {
      "inputs": [
        {
          "internalType": "address",
          "name": "_recieverAddress",
          "type": "address"
        },
        {
          "internalType": "address",
          "name": "_groupAddress",
          "type": "address"
        }
      ],
      "name": "transfer",
      "outputs": [],
      "stateMutability": "payable",
      "type": "function",
      "payable": true
    }
  ],
  "bytecode": "0x608060405234801561001057600080fd5b50613ac3806100206000396000f3fe6080604052600436106100f35760003560e01c8063785446291161008a578063ba45b0b811610059578063ba45b0b81461038a578063ceb60654146103a6578063dc2ddcae146103e7578063f6e9c86914610410576100f3565b80637854462914610294578063a3a409b2146102d1578063ae1da3261461030e578063b3ffccd11461034b576100f3565b806360fce18c116100c657806360fce18c146101c657806363d5e44d146101ef5780637020fc901461022d57806376d2b3711461026b576100f3565b806306545a93146100f857806315bbf19d146101235780631f651b3c1461014c57806343e9658c14610189575b600080fd5b34801561010457600080fd5b5061010d61044d565b60405161011a9190612800565b60405180910390f35b34801561012f57600080fd5b5061014a6004803603810190610145919061288d565b61045a565b005b34801561015857600080fd5b50610173600480360381019061016e91906128cd565b610637565b6040516101809190612939565b60405180910390f35b34801561019557600080fd5b506101b060048036038101906101ab9190612954565b610853565b6040516101bd9190612a3f565b60405180910390f35b3480156101d257600080fd5b506101ed60048036038101906101e89190612bd3565b610b27565b005b3480156101fb57600080fd5b5061021660048036038101906102119190612954565b610dea565b604051610224929190612cd5565b60405180910390f35b34801561023957600080fd5b50610254600480360381019061024f9190612954565b610e96565b604051610262929190612e11565b60405180910390f35b34801561027757600080fd5b50610292600480360381019061028d9190612954565b61134d565b005b3480156102a057600080fd5b506102bb60048036038101906102b69190612954565b6116fc565b6040516102c89190612a3f565b60405180910390f35b3480156102dd57600080fd5b506102f860048036038101906102f39190612e48565b6117d1565b6040516103059190612e84565b60405180910390f35b34801561031a57600080fd5b5061033560048036038101906103309190612954565b611810565b6040516103429190612eba565b60405180910390f35b34801561035757600080fd5b50610372600480360381019061036d9190612ed5565b61186f565b60405161038193929190612f15565b60405180910390f35b6103a4600480360381019061039f919061288d565b611998565b005b3480156103b257600080fd5b506103cd60048036038101906103c89190612e48565b611e50565b6040516103de959493929190613011565b60405180910390f35b3480156103f357600080fd5b5061040e60048036038101906104099190613080565b6122d2565b005b34801561041c57600080fd5b506104376004803603810190610432919061288d565b6123e0565b6040516104449190612800565b60405180910390f35b6000600180549050905090565b61046382611810565b6104a2576040517f08c379a000000000000000000000000000000000000000000000000000000000815260040161049990613115565b60405180910390fd5b60008060008473ffffffffffffffffffffffffffffffffffffffff1673ffffffffffffffffffffffffffffffffffffffff16815260200190815260200160002090508060020160008373ffffffffffffffffffffffffffffffffffffffff1673ffffffffffffffffffffffffffffffffffffffff16815260200190815260200160002060009054906101000a900460ff1615610573576040517f08c379a000000000000000000000000000000000000000000000000000000000815260040161056a90613181565b60405180910390fd5b80600101829080600181540180825580915050600190039060005260206000200160009091909190916101000a81548173ffffffffffffffffffffffffffffffffffffffff021916908373ffffffffffffffffffffffffffffffffffffffff16021790555060018160020160008473ffffffffffffffffffffffffffffffffffffffff1673ffffffffffffffffffffffffffffffffffffffff16815260200190815260200160002060006101000a81548160ff021916908315150217905550505050565b6000806000808473ffffffffffffffffffffffffffffffffffffffff1673ffffffffffffffffffffffffffffffffffffffff1681526020019081526020016000209050600061070e8260010180548060200260200160405190810160405280929190818152602001828054801561070357602002820191906000526020600020905b8160009054906101000a900473ffffffffffffffffffffffffffffffffffffffff1673ffffffffffffffffffffffffffffffffffffffff16815260200190600101908083116106b9575b50505050508761246e565b905060006107a48360010180548060200260200160405190810160405280929190818152602001828054801561079957602002820191906000526020600020905b8160009054906101000a900473ffffffffffffffffffffffffffffffffffffffff1673ffffffffffffffffffffffffffffffffffffffff168152602001906001019080831161074f575b50505050508761246e565b905060008360070183815481106107be576107bd6131a1565b5b9060005260206000200182815481106107da576107d96131a1565b5b90600052602060002001548460070183815481106107fb576107fa6131a1565b5b906000526020600020018481548110610817576108166131a1565b5b906000526020600020015461082c91906131ff565b90506000811315610843578094505050505061084c565b60009450505050505b9392505050565b606060008060008473ffffffffffffffffffffffffffffffffffffffff1673ffffffffffffffffffffffffffffffffffffffff16815260200190815260200160002090506000816004015467ffffffffffffffff8111156108b7576108b6612a7c565b5b6040519080825280602002602001820160405280156108e55781602001602082028036833780820191505090505b5090506000805b8360040154811015610a4657600084600301600083815260200190815260200160002090506000805b848110156109aa578260020160009054906101000a900473ffffffffffffffffffffffffffffffffffffffff1673ffffffffffffffffffffffffffffffffffffffff1686828151811061096b5761096a6131a1565b5b602002602001015173ffffffffffffffffffffffffffffffffffffffff160361099757600191506109aa565b80806109a290613242565b915050610915565b5080610a31578160020160009054906101000a900473ffffffffffffffffffffffffffffffffffffffff168585815181106109e8576109e76131a1565b5b602002602001019073ffffffffffffffffffffffffffffffffffffffff16908173ffffffffffffffffffffffffffffffffffffffff16815250508380610a2d90613242565b9450505b50508080610a3e90613242565b9150506108ec565b5060008167ffffffffffffffff811115610a6357610a62612a7c565b5b604051908082528060200260200182016040528015610a915781602001602082028036833780820191505090505b50905060005b82811015610b1a57838181518110610ab257610ab16131a1565b5b6020026020010151828281518110610acd57610acc6131a1565b5b602002602001019073ffffffffffffffffffffffffffffffffffffffff16908173ffffffffffffffffffffffffffffffffffffffff16815250508080610b1290613242565b915050610a97565b5080945050505050919050565b610b3084611810565b610b6f576040517f08c379a0000000000000000000000000000000000000000000000000000000008152600401610b6690613115565b60405180910390fd5b60008060008673ffffffffffffffffffffffffffffffffffffffff1673ffffffffffffffffffffffffffffffffffffffff16815260200190815260200160002090508060020160003373ffffffffffffffffffffffffffffffffffffffff1673ffffffffffffffffffffffffffffffffffffffff16815260200190815260200160002060009054906101000a900460ff16610c3f576040517f08c379a0000000000000000000000000000000000000000000000000000000008152600401610c36906132d6565b60405180910390fd5b8060020160008373ffffffffffffffffffffffffffffffffffffffff1673ffffffffffffffffffffffffffffffffffffffff16815260200190815260200160002060009054906101000a900460ff16610ccd576040517f08c379a0000000000000000000000000000000000000000000000000000000008152600401610cc4906132d6565b60405180910390fd5b600081600301600083600401548152602001908152602001600020905084816000019081610cfb9190613502565b50838160010181905550828160020160006101000a81548173ffffffffffffffffffffffffffffffffffffffff021916908373ffffffffffffffffffffffffffffffffffffffff160217905550816004016000815480929190610d5d90613242565b919050555080600101548260050160008360020160009054906101000a900473ffffffffffffffffffffffffffffffffffffffff1673ffffffffffffffffffffffffffffffffffffffff1673ffffffffffffffffffffffffffffffffffffffff1681526020019081526020016000206000828254610ddb91906135d4565b92505081905550505050505050565b6000602052806000526040600020600091509050806000018054610e0d90613325565b80601f0160208091040260200160405190810160405280929190818152602001828054610e3990613325565b8015610e865780601f10610e5b57610100808354040283529160200191610e86565b820191906000526020600020905b815481529060010190602001808311610e6957829003601f168201915b5050505050908060040154905082565b6060806000610ea361044d565b905060008167ffffffffffffffff811115610ec157610ec0612a7c565b5b604051908082528060200260200182016040528015610eef5781602001602082028036833780820191505090505b50905060008267ffffffffffffffff811115610f0e57610f0d612a7c565b5b604051908082528060200260200182016040528015610f4157816020015b6060815260200190600190039081610f2c5790505b50905060005b60008411156111dd57600080600060018088610f639190613608565b81548110610f7457610f736131a1565b5b9060005260206000200160009054906101000a900473ffffffffffffffffffffffffffffffffffffffff1673ffffffffffffffffffffffffffffffffffffffff1673ffffffffffffffffffffffffffffffffffffffff168152602001908152602001600020905060005b81600101805490508110156111c857816001018181548110611003576110026131a1565b5b9060005260206000200160009054906101000a900473ffffffffffffffffffffffffffffffffffffffff1673ffffffffffffffffffffffffffffffffffffffff168973ffffffffffffffffffffffffffffffffffffffff16036111b5576001808761106e9190613608565b8154811061107f5761107e6131a1565b5b9060005260206000200160009054906101000a900473ffffffffffffffffffffffffffffffffffffffff168584815181106110bd576110bc6131a1565b5b602002602001019073ffffffffffffffffffffffffffffffffffffffff16908173ffffffffffffffffffffffffffffffffffffffff168152505081600001805461110690613325565b80601f016020809104026020016040519081016040528092919081815260200182805461113290613325565b801561117f5780601f106111545761010080835404028352916020019161117f565b820191906000526020600020905b81548152906001019060200180831161116257829003601f168201915b5050505050848481518110611197576111966131a1565b5b602002602001018190525082806111ad90613242565b9350506111c8565b80806111c090613242565b915050610fde565b5084806111d49061363c565b95505050610f47565b60008167ffffffffffffffff8111156111f9576111f8612a7c565b5b6040519080825280602002602001820160405280156112275781602001602082028036833780820191505090505b50905060008267ffffffffffffffff81111561124657611245612a7c565b5b60405190808252806020026020018201604052801561127957816020015b60608152602001906001900390816112645790505b50905060005b8381101561133b5785818151811061129a576112996131a1565b5b60200260200101518382815181106112b5576112b46131a1565b5b602002602001019073ffffffffffffffffffffffffffffffffffffffff16908173ffffffffffffffffffffffffffffffffffffffff1681525050848181518110611302576113016131a1565b5b602002602001015182828151811061131d5761131c6131a1565b5b6020026020010181905250808061133390613242565b91505061127f565b50818197509750505050505050915091565b60008060008373ffffffffffffffffffffffffffffffffffffffff1673ffffffffffffffffffffffffffffffffffffffff16815260200190815260200160002090506113988261252a565b600081600701805480602002602001604051908101604052809291908181526020016000905b828210156114305783829060005260206000200180548060200260200160405190810160405280929190818152602001828054801561141c57602002820191906000526020600020905b815481526020019060010190808311611408575b5050505050815260200190600101906113be565b50505050905060005b82600401548110156116dd57600083600301600083815260200190815260200160002060405180606001604052908160008201805461147790613325565b80601f01602080910402602001604051908101604052809291908181526020018280546114a390613325565b80156114f05780601f106114c5576101008083540402835291602001916114f0565b820191906000526020600020905b8154815290600101906020018083116114d357829003601f168201915b50505050508152602001600182015481526020016002820160009054906101000a900473ffffffffffffffffffffffffffffffffffffffff1673ffffffffffffffffffffffffffffffffffffffff1673ffffffffffffffffffffffffffffffffffffffff1681525050905060006115f3856001018054806020026020016040519081016040528092919081815260200182805480156115e457602002820191906000526020600020905b8160009054906101000a900473ffffffffffffffffffffffffffffffffffffffff1673ffffffffffffffffffffffffffffffffffffffff168152602001906001019080831161159a575b5050505050836040015161246e565b905060008560010180549050836020015161160e9190613694565b905060005b86600101805490508110156116c65782810361166957600086848151811061163e5761163d6131a1565b5b60200260200101518281518110611658576116576131a1565b5b6020026020010181815250506116b3565b8186848151811061167d5761167c6131a1565b5b60200260200101518281518110611697576116966131a1565b5b602002602001018181516116ab91906136c5565b915081815250505b80806116be90613242565b915050611613565b5050505080806116d590613242565b915050611439565b50808260070190805190602001906116f69291906126d8565b50505050565b606060008060008473ffffffffffffffffffffffffffffffffffffffff1673ffffffffffffffffffffffffffffffffffffffff1681526020019081526020016000209050806001018054806020026020016040519081016040528092919081815260200182805480156117c457602002820191906000526020600020905b8160009054906101000a900473ffffffffffffffffffffffffffffffffffffffff1673ffffffffffffffffffffffffffffffffffffffff168152602001906001019080831161177a575b5050505050915050919050565b600181815481106117e157600080fd5b906000526020600020016000915054906101000a900473ffffffffffffffffffffffffffffffffffffffff1681565b6000806000808473ffffffffffffffffffffffffffffffffffffffff1673ffffffffffffffffffffffffffffffffffffffff1681526020019081526020016000209050600081600001805461186490613325565b905011915050919050565b606060008060008060008773ffffffffffffffffffffffffffffffffffffffff1673ffffffffffffffffffffffffffffffffffffffff1681526020019081526020016000209050600081600301600087815260200190815260200160002090508060000181600101548260020160009054906101000a900473ffffffffffffffffffffffffffffffffffffffff1682805461190990613325565b80601f016020809104026020016040519081016040528092919081815260200182805461193590613325565b80156119825780601f1061195757610100808354040283529160200191611982565b820191906000526020600020905b81548152906001019060200180831161196557829003601f168201915b5050505050925094509450945050509250925092565b60008060008373ffffffffffffffffffffffffffffffffffffffff1673ffffffffffffffffffffffffffffffffffffffff168152602001908152602001600020905060003390506000678ac7230489e800006119f5838787610637565b6119ff9190613709565b9050600085905060008060005b8660010180549050811015611aaa57866001018181548110611a3157611a306131a1565b5b9060005260206000200160009054906101000a900473ffffffffffffffffffffffffffffffffffffffff1673ffffffffffffffffffffffffffffffffffffffff168673ffffffffffffffffffffffffffffffffffffffff1603611a975760019250611aaa565b8080611aa290613242565b915050611a0c565b5060005b8660010180549050811015611b4c57866001018181548110611ad357611ad26131a1565b5b9060005260206000200160009054906101000a900473ffffffffffffffffffffffffffffffffffffffff1673ffffffffffffffffffffffffffffffffffffffff168473ffffffffffffffffffffffffffffffffffffffff1603611b395760019150611b4c565b8080611b4490613242565b915050611aae565b5081611b8d576040517f08c379a0000000000000000000000000000000000000000000000000000000008152600401611b84906137bf565b60405180910390fd5b80611bcd576040517f08c379a0000000000000000000000000000000000000000000000000000000008152600401611bc49061382b565b60405180910390fd5b8273ffffffffffffffffffffffffffffffffffffffff168573ffffffffffffffffffffffffffffffffffffffff1603611c3b576040517f08c379a0000000000000000000000000000000000000000000000000000000008152600401611c32906138bd565b60405180910390fd5b83471015611c7e576040517f08c379a0000000000000000000000000000000000000000000000000000000008152600401611c7590613929565b60405180910390fd5b6000611d1287600101805480602002602001604051908101604052809291908181526020018280548015611d0757602002820191906000526020600020905b8160009054906101000a900473ffffffffffffffffffffffffffffffffffffffff1673ffffffffffffffffffffffffffffffffffffffff1681526020019060010190808311611cbd575b50505050508761246e565b90506000611da888600101805480602002602001604051908101604052809291908181526020018280548015611d9d57602002820191906000526020600020905b8160009054906101000a900473ffffffffffffffffffffffffffffffffffffffff1673ffffffffffffffffffffffffffffffffffffffff1681526020019060010190808311611d53575b50505050508b61246e565b90508473ffffffffffffffffffffffffffffffffffffffff166108fc879081150290604051600060405180830381858888f19350505050158015611df0573d6000803e3d6000fd5b5085886007018381548110611e0857611e076131a1565b5b906000526020600020018281548110611e2457611e236131a1565b5b906000526020600020016000828254611e3d91906131ff565b9250508190555050505050505050505050565b6060600060608060606001805490508610611ea0576040517f08c379a0000000000000000000000000000000000000000000000000000000008152600401611e9790613995565b60405180910390fd5b600060018781548110611eb657611eb56131a1565b5b9060005260206000200160009054906101000a900473ffffffffffffffffffffffffffffffffffffffff16905060008060008373ffffffffffffffffffffffffffffffffffffffff1673ffffffffffffffffffffffffffffffffffffffff16815260200190815260200160002090506000816004015467ffffffffffffffff811115611f4557611f44612a7c565b5b604051908082528060200260200182016040528015611f735781602001602082028036833780820191505090505b5090506000826004015467ffffffffffffffff811115611f9657611f95612a7c565b5b604051908082528060200260200182016040528015611fc957816020015b6060815260200190600190039081611fb45790505b5090506000836004015467ffffffffffffffff811115611fec57611feb612a7c565b5b60405190808252806020026020018201604052801561201a5781602001602082028036833780820191505090505b50905060005b846004015481101561219a57600085600301600083815260200190815260200160002090508060020160009054906101000a900473ffffffffffffffffffffffffffffffffffffffff1685838151811061207d5761207c6131a1565b5b602002602001019073ffffffffffffffffffffffffffffffffffffffff16908173ffffffffffffffffffffffffffffffffffffffff16815250508060000180546120c690613325565b80601f01602080910402602001604051908101604052809291908181526020018280546120f290613325565b801561213f5780601f106121145761010080835404028352916020019161213f565b820191906000526020600020905b81548152906001019060200180831161212257829003601f168201915b5050505050848381518110612157576121566131a1565b5b6020026020010181905250806001015483838151811061217a576121796131a1565b5b60200260200101818152505050808061219290613242565b915050612020565b5083600001858560010184848480546121b290613325565b80601f01602080910402602001604051908101604052809291908181526020018280546121de90613325565b801561222b5780601f106122005761010080835404028352916020019161222b565b820191906000526020600020905b81548152906001019060200180831161220e57829003601f168201915b50505050509450828054806020026020016040519081016040528092919081815260200182805480156122b357602002820191906000526020600020905b8160009054906101000a900473ffffffffffffffffffffffffffffffffffffffff1673ffffffffffffffffffffffffffffffffffffffff1681526020019060010190808311612269575b5050505050925099509950995099509950505050505091939590929450565b60008060003373ffffffffffffffffffffffffffffffffffffffff1673ffffffffffffffffffffffffffffffffffffffff168152602001908152602001600020905061231d33611810565b1561235d576040517f08c379a000000000000000000000000000000000000000000000000000000000815260040161235490613a01565b60405180910390fd5b8181600001908161236e9190613502565b506001339080600181540180825580915050600190039060005260206000200160009091909190916101000a81548173ffffffffffffffffffffffffffffffffffffffff021916908373ffffffffffffffffffffffffffffffffffffffff1602179055506123dc333361045a565b5050565b6000806000808573ffffffffffffffffffffffffffffffffffffffff1673ffffffffffffffffffffffffffffffffffffffff16815260200190815260200160002090508060050160008473ffffffffffffffffffffffffffffffffffffffff1673ffffffffffffffffffffffffffffffffffffffff1681526020019081526020016000205491505092915050565b600080600090505b83518110156124e8578273ffffffffffffffffffffffffffffffffffffffff168482815181106124a9576124a86131a1565b5b602002602001015173ffffffffffffffffffffffffffffffffffffffff16036124d55780915050612524565b80806124e090613242565b915050612476565b506040517f08c379a000000000000000000000000000000000000000000000000000000000815260040161251b90613a6d565b60405180910390fd5b92915050565b60008060008373ffffffffffffffffffffffffffffffffffffffff1673ffffffffffffffffffffffffffffffffffffffff16815260200190815260200160002090506000816001018054905067ffffffffffffffff81111561258f5761258e612a7c565b5b6040519080825280602002602001820160405280156125c257816020015b60608152602001906001900390816125ad5790505b50905060005b82600101805490508110156126b957826001018054905067ffffffffffffffff8111156125f8576125f7612a7c565b5b6040519080825280602002602001820160405280156126265781602001602082028036833780820191505090505b5082828151811061263a576126396131a1565b5b602002602001018190525060005b83600101805490508110156126a557600083838151811061266c5761266b6131a1565b5b60200260200101518281518110612686576126856131a1565b5b602002602001018181525050808061269d90613242565b915050612648565b5080806126b190613242565b9150506125c8565b50808260070190805190602001906126d29291906126d8565b50505050565b828054828255906000526020600020908101928215612727579160200282015b82811115612726578251829080519060200190612716929190612738565b50916020019190600101906126f8565b5b5090506127349190612785565b5090565b828054828255906000526020600020908101928215612774579160200282015b82811115612773578251825591602001919060010190612758565b5b50905061278191906127a9565b5090565b5b808211156127a5576000818161279c91906127c6565b50600101612786565b5090565b5b808211156127c25760008160009055506001016127aa565b5090565b50805460008255906000526020600020908101906127e491906127a9565b50565b6000819050919050565b6127fa816127e7565b82525050565b600060208201905061281560008301846127f1565b92915050565b6000604051905090565b600080fd5b600080fd5b600073ffffffffffffffffffffffffffffffffffffffff82169050919050565b600061285a8261282f565b9050919050565b61286a8161284f565b811461287557600080fd5b50565b60008135905061288781612861565b92915050565b600080604083850312156128a4576128a3612825565b5b60006128b285828601612878565b92505060206128c385828601612878565b9150509250929050565b6000806000606084860312156128e6576128e5612825565b5b60006128f486828701612878565b935050602061290586828701612878565b925050604061291686828701612878565b9150509250925092565b6000819050919050565b61293381612920565b82525050565b600060208201905061294e600083018461292a565b92915050565b60006020828403121561296a57612969612825565b5b600061297884828501612878565b91505092915050565b600081519050919050565b600082825260208201905092915050565b6000819050602082019050919050565b6129b68161284f565b82525050565b60006129c883836129ad565b60208301905092915050565b6000602082019050919050565b60006129ec82612981565b6129f6818561298c565b9350612a018361299d565b8060005b83811015612a32578151612a1988826129bc565b9750612a24836129d4565b925050600181019050612a05565b5085935050505092915050565b60006020820190508181036000830152612a5981846129e1565b905092915050565b600080fd5b600080fd5b6000601f19601f8301169050919050565b7f4e487b7100000000000000000000000000000000000000000000000000000000600052604160045260246000fd5b612ab482612a6b565b810181811067ffffffffffffffff82111715612ad357612ad2612a7c565b5b80604052505050565b6000612ae661281b565b9050612af28282612aab565b919050565b600067ffffffffffffffff821115612b1257612b11612a7c565b5b612b1b82612a6b565b9050602081019050919050565b82818337600083830152505050565b6000612b4a612b4584612af7565b612adc565b905082815260208101848484011115612b6657612b65612a66565b5b612b71848285612b28565b509392505050565b600082601f830112612b8e57612b8d612a61565b5b8135612b9e848260208601612b37565b91505092915050565b612bb0816127e7565b8114612bbb57600080fd5b50565b600081359050612bcd81612ba7565b92915050565b60008060008060808587031215612bed57612bec612825565b5b6000612bfb87828801612878565b945050602085013567ffffffffffffffff811115612c1c57612c1b61282a565b5b612c2887828801612b79565b9350506040612c3987828801612bbe565b9250506060612c4a87828801612878565b91505092959194509250565b600081519050919050565b600082825260208201905092915050565b60005b83811015612c90578082015181840152602081019050612c75565b60008484015250505050565b6000612ca782612c56565b612cb18185612c61565b9350612cc1818560208601612c72565b612cca81612a6b565b840191505092915050565b60006040820190508181036000830152612cef8185612c9c565b9050612cfe60208301846127f1565b9392505050565b600081519050919050565b600082825260208201905092915050565b6000819050602082019050919050565b600082825260208201905092915050565b6000612d4d82612c56565b612d578185612d31565b9350612d67818560208601612c72565b612d7081612a6b565b840191505092915050565b6000612d878383612d42565b905092915050565b6000602082019050919050565b6000612da782612d05565b612db18185612d10565b935083602082028501612dc385612d21565b8060005b85811015612dff5784840389528151612de08582612d7b565b9450612deb83612d8f565b925060208a01995050600181019050612dc7565b50829750879550505050505092915050565b60006040820190508181036000830152612e2b81856129e1565b90508181036020830152612e3f8184612d9c565b90509392505050565b600060208284031215612e5e57612e5d612825565b5b6000612e6c84828501612bbe565b91505092915050565b612e7e8161284f565b82525050565b6000602082019050612e996000830184612e75565b92915050565b60008115159050919050565b612eb481612e9f565b82525050565b6000602082019050612ecf6000830184612eab565b92915050565b60008060408385031215612eec57612eeb612825565b5b6000612efa85828601612878565b9250506020612f0b85828601612bbe565b9150509250929050565b60006060820190508181036000830152612f2f8186612c9c565b9050612f3e60208301856127f1565b612f4b6040830184612e75565b949350505050565b600081519050919050565b600082825260208201905092915050565b6000819050602082019050919050565b612f88816127e7565b82525050565b6000612f9a8383612f7f565b60208301905092915050565b6000602082019050919050565b6000612fbe82612f53565b612fc88185612f5e565b9350612fd383612f6f565b8060005b83811015613004578151612feb8882612f8e565b9750612ff683612fa6565b925050600181019050612fd7565b5085935050505092915050565b600060a082019050818103600083015261302b8188612c9c565b905061303a6020830187612e75565b818103604083015261304c81866129e1565b905081810360608301526130608185612d9c565b905081810360808301526130748184612fb3565b90509695505050505050565b60006020828403121561309657613095612825565b5b600082013567ffffffffffffffff8111156130b4576130b361282a565b5b6130c084828501612b79565b91505092915050565b7f47726f757020646f6573206e6f74206578697374000000000000000000000000600082015250565b60006130ff601483612c61565b915061310a826130c9565b602082019050919050565b6000602082019050818103600083015261312e816130f2565b9050919050565b7f4d656d62657220616c7265616479206578697374730000000000000000000000600082015250565b600061316b601583612c61565b915061317682613135565b602082019050919050565b6000602082019050818103600083015261319a8161315e565b9050919050565b7f4e487b7100000000000000000000000000000000000000000000000000000000600052603260045260246000fd5b7f4e487b7100000000000000000000000000000000000000000000000000000000600052601160045260246000fd5b600061320a82612920565b915061321583612920565b925082820390508181126000841216828213600085121516171561323c5761323b6131d0565b5b92915050565b600061324d826127e7565b91507fffffffffffffffffffffffffffffffffffffffffffffffffffffffffffffffff820361327f5761327e6131d0565b5b600182019050919050565b7f4e6f742061206d656d626572206f66207468652067726f757000000000000000600082015250565b60006132c0601983612c61565b91506132cb8261328a565b602082019050919050565b600060208201905081810360008301526132ef816132b3565b9050919050565b7f4e487b7100000000000000000000000000000000000000000000000000000000600052602260045260246000fd5b6000600282049050600182168061333d57607f821691505b6020821081036133505761334f6132f6565b5b50919050565b60008190508160005260206000209050919050565b60006020601f8301049050919050565b600082821b905092915050565b6000600883026133b87fffffffffffffffffffffffffffffffffffffffffffffffffffffffffffffffff8261337b565b6133c2868361337b565b95508019841693508086168417925050509392505050565b6000819050919050565b60006133ff6133fa6133f5846127e7565b6133da565b6127e7565b9050919050565b6000819050919050565b613419836133e4565b61342d61342582613406565b848454613388565b825550505050565b600090565b613442613435565b61344d818484613410565b505050565b5b818110156134715761346660008261343a565b600181019050613453565b5050565b601f8211156134b65761348781613356565b6134908461336b565b8101602085101561349f578190505b6134b36134ab8561336b565b830182613452565b50505b505050565b600082821c905092915050565b60006134d9600019846008026134bb565b1980831691505092915050565b60006134f283836134c8565b9150826002028217905092915050565b61350b82612c56565b67ffffffffffffffff81111561352457613523612a7c565b5b61352e8254613325565b613539828285613475565b600060209050601f83116001811461356c576000841561355a578287015190505b61356485826134e6565b8655506135cc565b601f19841661357a86613356565b60005b828110156135a25784890151825560018201915060208501945060208101905061357d565b868310156135bf57848901516135bb601f8916826134c8565b8355505b6001600288020188555050505b505050505050565b60006135df826127e7565b91506135ea836127e7565b9250828201905080821115613602576136016131d0565b5b92915050565b6000613613826127e7565b915061361e836127e7565b9250828203905081811115613636576136356131d0565b5b92915050565b6000613647826127e7565b91506000820361365a576136596131d0565b5b600182039050919050565b7f4e487b7100000000000000000000000000000000000000000000000000000000600052601260045260246000fd5b600061369f826127e7565b91506136aa836127e7565b9250826136ba576136b9613665565b5b828204905092915050565b60006136d082612920565b91506136db83612920565b925082820190508281121560008312168382126000841215161715613703576137026131d0565b5b92915050565b600061371482612920565b915061371f83612920565b92508261372f5761372e613665565b5b600160000383147f800000000000000000000000000000000000000000000000000000000000000083141615613768576137676131d0565b5b828205905092915050565b7f53656e64657220646f6573206e6f742065786973747300000000000000000000600082015250565b60006137a9601683612c61565b91506137b482613773565b602082019050919050565b600060208201905081810360008301526137d88161379c565b9050919050565b7f526563696576657220646f6573206e6f742065786973742e0000000000000000600082015250565b6000613815601883612c61565b9150613820826137df565b602082019050919050565b6000602082019050818103600083015261384481613808565b9050919050565b7f53656e64657220616e642072656369657665722063616e6e6f7420626520736160008201527f6d652e0000000000000000000000000000000000000000000000000000000000602082015250565b60006138a7602383612c61565b91506138b28261384b565b604082019050919050565b600060208201905081810360008301526138d68161389a565b9050919050565b7f496e73756666696369656e742062616c616e6365000000000000000000000000600082015250565b6000613913601483612c61565b915061391e826138dd565b602082019050919050565b6000602082019050818103600083015261394281613906565b9050919050565b7f496e76616c69642067726f757020696e64657800000000000000000000000000600082015250565b600061397f601383612c61565b915061398a82613949565b602082019050919050565b600060208201905081810360008301526139ae81613972565b9050919050565b7f47726f757020616c726561647920657869737473000000000000000000000000600082015250565b60006139eb601483612c61565b91506139f6826139b5565b602082019050919050565b60006020820190508181036000830152613a1a816139de565b9050919050565b7f4d656d626572206e6f7420666f756e6420696e2067726f757000000000000000600082015250565b6000613a57601983612c61565b9150613a6282613a21565b602082019050919050565b60006020820190508181036000830152613a8681613a4a565b905091905056fea2646970667358221220c6ea16201f311fdaf4ca0a35bb6745b7db321078e4f256e3e0dcc1df926bbe0f64736f6c63430008130033",
  "immutableReferences": {},
  "source": "//SPDX-License-Identifier:MIT\r\npragma solidity ^0.8.10;\r\n\r\n\r\ncontract Sikka{\r\n    \r\n    struct Expense {\r\n        string description;\r\n        uint256 amount;\r\n        address contributor;\r\n        // bool isPaid;\r\n    }\r\n\r\n    struct Group {\r\n        string name;\r\n        address [] members;\r\n        mapping(address => bool) isMember;\r\n        mapping(uint256=>Expense) expenses;\r\n        uint256 expenseCount;\r\n        mapping (address => uint256) contributors;\r\n        address[] nonpaid;\r\n        int256[][] expense2dArray;\r\n        mapping(address=>mapping(address=>uint256))  topay;\r\n    }\r\n    \r\n    mapping(address => Group) public groups;\r\n    address[] public groupOwners; // Keep track of group owners\r\n\r\n    function createGroup(string memory _groupName) public {\r\n        Group storage group = groups[msg.sender];\r\n        require(!isGroupExist(msg.sender), \"Group already exists\");\r\n        group.name = _groupName;\r\n        groupOwners.push(msg.sender); // Add the group owner to the groupOwners array\r\n        addMembers(msg.sender,msg.sender);\r\n    }\r\n\r\n    function addExpense(\r\n        address _groupOwner,\r\n        string memory _expenseDescription,\r\n        uint256 _expenseAmount,\r\n        address _contributor\r\n    ) public {\r\n        require(isGroupExist(_groupOwner), \"Group does not exist\");\r\n        Group storage group = groups[_groupOwner];\r\n        require(group.isMember[msg.sender], \"Not a member of the group\");\r\n        require(group.isMember[_contributor], \"Not a member of the group\");\r\n\r\n        // Create Expense object\r\n        Expense storage expense = group.expenses[group.expenseCount];\r\n        expense.description = _expenseDescription;\r\n        expense.amount = _expenseAmount;\r\n        expense.contributor=_contributor ;\r\n        // expense.isPaid = false;\r\n        // Increment expense count\r\n        group.expenseCount++;\r\n        group.contributors[expense.contributor]+= expense.amount;\r\n \r\n    }\r\n\r\n    function addMembers(address _groupOwner,address  _member)\r\n    public{\r\n        require(isGroupExist(_groupOwner), \"Group does not exist\");\r\n        Group storage group = groups[_groupOwner];\r\n        require(!group.isMember[_member], \"Member already exists\");\r\n        group.members.push(_member);\r\n        group.isMember[_member] = true;\r\n    }\r\n\r\n\r\n\r\n    function getMembers(address _groupOwner) public view returns (address[] memory){\r\n        Group storage group= groups[_groupOwner];\r\n        return group.members;\r\n    }\r\n\r\n    function isGroupExist(address _groupOwner) public view returns (bool) {\r\n        Group storage group = groups[_groupOwner];\r\n        return bytes(group.name).length > 0;\r\n    }\r\n\r\n    //groupCount\r\n     function getGroupCount() public view returns (uint256) {\r\n        return groupOwners.length;\r\n    }\r\n\r\n     // Function to retrieve a specific group by index\r\n    function getGroup(uint256 index) public view returns (string memory, address,address[] memory, string[] memory, uint256[] memory) {\r\n        require(index < groupOwners.length, \"Invalid group index\");\r\n        address groupOwner = groupOwners[index]; // Get the group owner at the given index\r\n        Group storage group = groups[groupOwner]; // Retrieve the Group struct from the mapping\r\n        address[] memory contributors = new address[](group.expenseCount);\r\n        string[] memory descriptions = new string[](group.expenseCount);\r\n        uint256[] memory amounts = new uint256[](group.expenseCount);\r\n        // bool[] memory isPaid = new bool[](group.expenseCount);\r\n\r\n        for (uint256 i = 0; i < group.expenseCount; i++) {\r\n            Expense storage expense = group.expenses[i];\r\n            contributors[i]=expense.contributor;\r\n            descriptions[i] = expense.description;\r\n            amounts[i] = expense.amount;\r\n            // isPaid[i] = expense.isPaid;\r\n        }\r\n        return (group.name, groupOwner,group.members, descriptions, amounts);\r\n    }\r\n\r\n\r\n    function getContributors(address _groupOwner) public view returns (address[] memory) {\r\n        Group storage group = groups[_groupOwner];\r\n        address[] memory contributorList = new address[](group.expenseCount);\r\n        uint256 index = 0;\r\n\r\n        for (uint256 i = 0; i < group.expenseCount; i++) {\r\n            Expense storage expense = group.expenses[i];\r\n            bool isDuplicate = false;\r\n\r\n            // Check if the current contributor already exists in the list\r\n            for (uint256 j = 0; j < index; j++) {\r\n                if (contributorList[j] == expense.contributor) {\r\n                    isDuplicate = true;\r\n                    break;\r\n                }\r\n            }\r\n\r\n            // If the contributor is not a duplicate, add it to the list\r\n            if (!isDuplicate) {\r\n                contributorList[index] = expense.contributor;\r\n                index++;\r\n            }\r\n        }\r\n\r\n        // Trim the contributorList array to remove any unused slots\r\n        address[] memory trimmedContributors = new address[](index);\r\n        for (uint256 i = 0; i < index; i++) {\r\n            trimmedContributors[i] = contributorList[i];\r\n        }\r\n\r\n        return trimmedContributors;\r\n    }\r\n\r\n\r\n    function getContributorAmount(address _groupOwner,address _contributor) public view returns (uint){\r\n        Group storage group = groups[_groupOwner];\r\n        return (group.contributors[_contributor]);\r\n    }\r\n\r\n    function getExpense(address _groupOwner, uint256 _expenseIndex) public view returns (string memory, uint256, address) {\r\n        Group storage group = groups[_groupOwner];\r\n        Expense storage expense = group.expenses[_expenseIndex];\r\n\r\n        return (expense.description, expense.amount, expense.contributor);\r\n    }\r\n\r\n\r\n    function initializeExpense(address _groupOwner) internal {\r\n        Group storage group = groups[_groupOwner];\r\n        int256[][] memory expense2dArrayCopy = new int256[][](group.members.length);\r\n        \r\n        for (uint256 i = 0; i < group.members.length; i++) {\r\n            expense2dArrayCopy[i] = new int256[](group.members.length);\r\n            \r\n            for (uint256 j = 0; j < group.members.length; j++) {\r\n                expense2dArrayCopy[i][j] = 0;\r\n            }\r\n        }\r\n        group.expense2dArray = expense2dArrayCopy;\r\n    }\r\n        \r\n    function findMemberIndex(address[] memory members, address member) private pure returns (uint256) {\r\n        for (uint256 i = 0; i < members.length; i++) {\r\n            if (members[i] == member) {\r\n                return i;\r\n            }\r\n        }\r\n        revert(\"Member not found in group\");\r\n    }\r\n\r\n    function splitwise(address _groupOwner) public{\r\n        Group storage group = groups[_groupOwner];\r\n        initializeExpense(_groupOwner);\r\n        int256[][] memory expense2dArrayCopy = group.expense2dArray;\r\n        for(uint i = 0; i < group.expenseCount;i++){\r\n            Expense memory expense = group.expenses[i];\r\n            uint256 payerIndex = findMemberIndex(group.members,expense.contributor);\r\n            int256 splitExpense = int(expense.amount/group.members.length);\r\n            for(uint j = 0; j< group.members.length;j++){\r\n                if (j == payerIndex) {\r\n                    expense2dArrayCopy[payerIndex][j] = 0;\r\n                } else {\r\n                    expense2dArrayCopy[payerIndex][j] += splitExpense;\r\n                }   \r\n            }\r\n        }\r\n            group.expense2dArray = expense2dArrayCopy;\r\n    }\r\n\r\n    function getTopay(address from, address to, address _groupOwner) public view returns(int256) {\r\n        Group storage group = groups[_groupOwner];\r\n        uint indexOfFrom = findMemberIndex(group.members,from);\r\n        uint indexOfTo = findMemberIndex(group.members,to);\r\n        int settlementAmount = group.expense2dArray[indexOfTo][indexOfFrom] - group.expense2dArray[indexOfFrom][indexOfTo];\r\n        if (settlementAmount > 0){\r\n            return settlementAmount;\r\n        }\r\n        else{\r\n            return 0;\r\n        }\r\n        \r\n    }\r\n\r\n\r\n    function getMemberedGroups(address _ownerAddress) public view returns (address[] memory, string[] memory){\r\n        uint256 groupCount = getGroupCount();\r\n        address[] memory groupList = new address[](groupCount);\r\n        string[] memory groupNameList= new string[](groupCount);\r\n        uint256 index = 0;\r\n        while (groupCount > 0) {\r\n            Group storage group = groups[groupOwners[groupCount - 1]];\r\n            for (uint256 i = 0; i < group.members.length; i++) {\r\n                if (_ownerAddress == group.members[i]){\r\n                    groupList[index] = groupOwners[groupCount - 1];\r\n                    groupNameList[index]=group.name;\r\n                    index++;\r\n                    break;\r\n                }\r\n            }\r\n            groupCount--;\r\n        }\r\n        // Trim the contributorList array to remove any unused slots\r\n        address[] memory trimmedgroupList = new address[](index);\r\n        string[] memory trimmedgroupNameList = new string[](index);\r\n        for (uint256 i = 0; i < index; i++) {\r\n            trimmedgroupList[i]=groupList[i];\r\n            trimmedgroupNameList[i]=groupNameList[i];\r\n        }\r\n\r\n        return (trimmedgroupList,trimmedgroupNameList);\r\n    }\r\n\r\n    function transfer( address _recieverAddress,address _groupAddress) public payable {\r\n        Group storage group= groups[_groupAddress];\r\n        address payable sender= payable(msg.sender);\r\n        int256 amount= getTopay( sender, _recieverAddress, _groupAddress)/10000000000000000000;\r\n        // amount=msg.value;\r\n        // amount= 1000000000000000;\r\n        address payable reciever = payable(_recieverAddress);\r\n        bool senderExists= false;\r\n        bool recieverExists= false;\r\n\r\n        // To check if the sender or reciever exists or not:\r\n        for (uint i=0;i<group.members.length;i++)\r\n        {\r\n            if(sender == group.members[i]){\r\n                senderExists=true;\r\n                break;\r\n            }\r\n        }\r\n        for (uint i=0;i<group.members.length;i++)\r\n        {\r\n            if(reciever== group.members[i]){\r\n                recieverExists=true;\r\n                break;\r\n            }\r\n        }\r\n        require(senderExists,\"Sender does not exists\");\r\n        require(recieverExists,\"Reciever does not exist.\");\r\n        require(sender!=reciever,\"Sender and reciever cannot be same.\");\r\n        require(address(this).balance >= uint256(amount), \"Insufficient balance\");\r\n        // require(amount>0 , \"No amount to be transferred.\");\r\n        \r\n        uint indexOfSender = findMemberIndex(group.members,sender);\r\n        uint indexOfReceiver = findMemberIndex(group.members,_recieverAddress);\r\n        reciever.transfer(uint256(amount));\r\n        group.expense2dArray[indexOfSender][indexOfReceiver] -= amount;\r\n        \r\n    }\r\n\r\n}",
  "sourcePath": "D:\\BlockChain\\BlockchainProject\\blockchain\\contracts\\Sikka.sol",
  "compiler": {
    "name": "solc",
    "version": "0.8.19+commit.7dd6d404.Emscripten.clang"
  },
  "schemaVersion": "3.4.13",
  "updatedAt": "2023-05-16T16:23:12.526Z",
  "networkType": "ethereum",
  "devdoc": {
    "kind": "dev",
    "methods": {},
    "version": 1
  },
  "userdoc": {
    "kind": "user",
    "methods": {},
    "version": 1
  }
}